{
  "contractName": "AddressSetLib",
  "abi": [
    {
      "constant": true,
      "inputs": [
        {
          "name": "self",
          "type": "AddressSetLib.AddressSet storage"
        }
      ],
      "name": "size",
      "outputs": [
        {
          "name": "",
          "type": "uint256"
        }
      ],
      "payable": false,
      "type": "function"
    },
    {
      "constant": false,
      "inputs": [
        {
          "name": "self",
          "type": "AddressSetLib.AddressSet storage"
        },
        {
          "name": "value",
          "type": "address"
        }
      ],
      "name": "add",
      "outputs": [
        {
          "name": "",
          "type": "bool"
        }
      ],
      "payable": false,
      "type": "function"
    },
    {
      "constant": false,
      "inputs": [
        {
          "name": "self",
          "type": "AddressSetLib.AddressSet storage"
        },
        {
          "name": "value",
          "type": "address"
        }
      ],
      "name": "remove",
      "outputs": [
        {
          "name": "",
          "type": "bool"
        }
      ],
      "payable": false,
      "type": "function"
    },
    {
      "constant": false,
      "inputs": [
        {
          "name": "self",
          "type": "AddressSetLib.AddressSet storage"
        },
        {
          "name": "index",
          "type": "uint256"
        },
        {
          "name": "value",
          "type": "address"
        }
      ],
      "name": "set",
      "outputs": [
        {
          "name": "",
          "type": "bool"
        }
      ],
      "payable": false,
      "type": "function"
    },
    {
      "constant": false,
      "inputs": [
        {
          "name": "self",
          "type": "AddressSetLib.AddressSet storage"
        },
        {
          "name": "old",
          "type": "address"
        },
        {
          "name": "nu",
          "type": "address"
        }
      ],
      "name": "replace",
      "outputs": [
        {
          "name": "",
          "type": "bool"
        }
      ],
      "payable": false,
      "type": "function"
    },
    {
      "constant": true,
      "inputs": [
        {
          "name": "self",
          "type": "AddressSetLib.AddressSet storage"
        },
        {
          "name": "value",
          "type": "address"
        }
      ],
      "name": "indexOf",
      "outputs": [
        {
          "name": "",
          "type": "uint256"
        }
      ],
      "payable": false,
      "type": "function"
    },
    {
      "constant": true,
      "inputs": [
        {
          "name": "self",
          "type": "AddressSetLib.AddressSet storage"
        }
      ],
      "name": "last",
      "outputs": [
        {
          "name": "",
          "type": "address"
        }
      ],
      "payable": false,
      "type": "function"
    },
    {
      "constant": true,
      "inputs": [
        {
          "name": "self",
          "type": "AddressSetLib.AddressSet storage"
        },
        {
          "name": "index",
          "type": "uint256"
        }
      ],
      "name": "get",
      "outputs": [
        {
          "name": "",
          "type": "address"
        }
      ],
      "payable": false,
      "type": "function"
    },
    {
      "constant": true,
      "inputs": [
        {
          "name": "self",
          "type": "AddressSetLib.AddressSet storage"
        },
        {
          "name": "value",
          "type": "address"
        }
      ],
      "name": "contains",
      "outputs": [
        {
          "name": "",
          "type": "bool"
        }
      ],
      "payable": false,
      "type": "function"
    },
    {
      "constant": true,
      "inputs": [
        {
          "name": "self",
          "type": "AddressSetLib.AddressSet storage"
        }
      ],
      "name": "first",
      "outputs": [
        {
          "name": "",
          "type": "address"
        }
      ],
      "payable": false,
      "type": "function"
    },
    {
      "constant": false,
      "inputs": [
        {
          "name": "self",
          "type": "AddressSetLib.AddressSet storage"
        },
        {
          "name": "index",
          "type": "uint256"
        }
      ],
      "name": "pop",
      "outputs": [
        {
          "name": "",
          "type": "address"
        }
      ],
      "payable": false,
      "type": "function"
    }
  ],
  "bytecode": "0x6060604052341561000f57600080fd5b5b6106f48061001f6000396000f300606060405236156100ac5763ffffffff7c01000000000000000000000000000000000000000000000000000000006000350416631d4cf6c481146100b15780631e401616146100ce578063499b67d9146100f9578063840d4d3714610124578063a2a070c314610152578063af026a9014610183578063ba39f4a5146101ac578063da5d2348146101d3578063dc02e70d146101fd578063eae5496714610228578063efc33f1e1461024f575b600080fd5b6100bc600435610279565b60405190815260200160405180910390f35b6100e5600435600160a060020a0360243516610281565b604051901515815260200160405180910390f35b6100e5600435600160a060020a0360243516610330565b604051901515815260200160405180910390f35b6100e5600435602435600160a060020a0360443516610382565b604051901515815260200160405180910390f35b6100e5600435600160a060020a0360243581169060443516610439565b604051901515815260200160405180910390f35b6100bc600435600160a060020a0360243516610461565b60405190815260200160405180910390f35b6101b76004356104b1565b604051600160a060020a03909116815260200160405180910390f35b6101b76004356024356104de565b604051600160a060020a03909116815260200160405180910390f35b6100e5600435600160a060020a036024351661052c565b604051901515815260200160405180910390f35b6101b7600435610551565b604051600160a060020a03909116815260200160405180910390f35b6101b7600435602435610578565b604051600160a060020a03909116815260200160405180910390f35b80545b919050565b600160a060020a038116600090815260018301602052604081205460ff16156102ac5750600061032a565b8254600160a060020a038316600090815260028501602052604090208190558390600181016102db8382610653565b916000526020600020900160005b8154600160a060020a038087166101009390930a83810291021990911617909155600090815260018581016020526040909120805460ff1916821790559150505b92915050565b600160a060020a0381166000908152600183016020526040812054819060ff16151561035f576000915061037b565b6103698484610461565b90506103758482610578565b50600191505b5092915050565b825460009084908490811061039657600080fd5b600160a060020a038416600090815260018701602052604090205460ff16156103c2576000925061042f565b855484908790879081106103d257fe5b906000526020600020900160005b8154600160a060020a039384166101009290920a918202918402191617905584166000908152600187810160209081526040808420805460ff19168417905560028a0190915290912086905592505b5b50509392505050565b60006104458484610330565b801561045657506104568483610281565b5b90505b9392505050565b600160a060020a038116600090815260018301602052604081205460ff16151561048e575060001961032a565b50600160a060020a03811660009081526002830160205260409020545b92915050565b8054600090829015156104c357600080fd5b82546104d4908490600019016104de565b91505b5b50919050565b81546000908390839081106104f257600080fd5b845485908590811061050057fe5b906000526020600020900160005b9054906101000a9004600160a060020a031692505b5b505092915050565b600160a060020a038116600090815260018301602052604090205460ff165b92915050565b80546000908290151561056357600080fd5b6104d48360006104de565b91505b5b50919050565b81546000908190819085908590811061059057600080fd5b61059a87876104de565b8754909450600019018614610600576105b2876104b1565b600160a060020a03811660009081526001890160205260409020805460ff1916905592506105e1878785610382565b50600160a060020a038316600090815260028801602052604090208690555b8654600019016106108882610653565b50600160a060020a0384166000908152600288016020908152604080832083905560018a019091529020805460ff1916905592935083925b5b5050505092915050565b815481835581811511610677576000838152602090206106779181019083016106a7565b5b505050565b815481835581811511610677576000838152602090206106779181019083016106a7565b5b505050565b6106c591905b808211156106c157600081556001016106ad565b5090565b905600a165627a7a723058203b257ce9f1e91983fc81e1eb6d905ba8e26aa3e29e419ef1687573f4275a7b4e0029",
  "source": "pragma solidity ^0.4.11;\n\n/// @title Library implementing an array type which allows O(1) lookups on values.\n/// @author Piper Merriam <pipermerriam@gmail.com>, Eric Olszewski <eolszewski@gmail.com>\n/// Adapted from https://github.com/ethpm/ethereum-indexed-enumerable-set-lib/blob/master/contracts/IndexedEnumerableSetLib.sol\nlibrary AddressSetLib {\n\n  struct AddressSet {\n    address[] values;\n    mapping(address => bool) exists;\n    mapping(address => uint) indices;\n  }\n\n  modifier inBounds(AddressSet storage self, uint index) {\n    require(index < self.values.length);\n    _;\n  }\n\n  modifier notEmpty(AddressSet storage self) {\n    require(self.values.length != 0);\n    _;\n  }\n\n  function get(AddressSet storage self, uint index) public constant\n    inBounds(self, index)\n    returns (address)\n  {\n    return self.values[index];\n  }\n\n  function set(AddressSet storage self, uint index, address value) public\n    inBounds(self, index)\n    returns (bool)\n  {\n    if (self.exists[value])\n      return false;\n    self.values[index] = value;\n    self.exists[value] = true;\n    self.indices[value] = index;\n    return true;\n  }\n\n  function add(AddressSet storage self, address value) public\n    returns (bool)\n  {\n    if (self.exists[value])\n      return false;\n    self.indices[value] = self.values.length;\n    self.values.push(value);\n    self.exists[value] = true;\n    return true;\n  }\n\n  function remove(AddressSet storage self, address value) public\n    returns (bool)\n  {\n    if (!self.exists[value])\n      return false;\n    uint index = indexOf(self, value);\n    pop(self, index);\n    return true;\n  }\n\n  function pop(AddressSet storage self, uint index) public\n    inBounds(self, index)\n    returns (address)\n\t{\n    address value = get(self, index);\n\n    if (index != self.values.length - 1) {\n      address lastValue = last(self);\n      self.exists[lastValue] = false;\n      set(self, index, lastValue);\n      self.indices[lastValue] = index;\n    }\n    self.values.length -= 1;\n\n    delete self.indices[value];\n    delete self.exists[value];\n\n    return value;\n  }\n\n  function replace(AddressSet storage self, address old, address nu) public\n    returns (bool)\n  {\n    return remove(self, old) && add(self, nu);\n  }\n  \n  function first(AddressSet storage self) public constant\n    notEmpty(self)\n    returns (address)\n  {\n    return get(self, 0);\n  }\n\n  function last(AddressSet storage self) public constant\n    notEmpty(self)\n    returns (address)\n  {\n    return get(self, self.values.length - 1);\n  }\n\n  function indexOf(AddressSet storage self, address value) public constant\n    returns (uint)\n  {\n    if (!self.exists[value])\n      return uint(-1);\n    return self.indices[value];\n  }\n\n  function contains(AddressSet storage self, address value) public constant\n    returns (bool)\n  {\n    return self.exists[value];\n  }\n\n  function size(AddressSet storage self) public constant\n    returns (uint)\n  {\n    return self.values.length;\n  }\n}\n",
  "sourcePath": "/Users/orie/TransmuteIndustries/_CORE/transmute-framework/contracts/TransmuteFramework/SetLib/AddressSet/AddressSetLib.sol",
  "schemaVersion": "1.0.0",
  "updatedAt": "2017-09-30T20:09:44.749Z"
}