{
  "contractName": "RBACEventStore",
  "abi": [
    {
      "constant": false,
      "inputs": [
        {
          "name": "target",
          "type": "address"
        }
      ],
      "name": "getAddressRole",
      "outputs": [
        {
          "name": "",
          "type": "bytes32"
        }
      ],
      "payable": false,
      "type": "function"
    },
    {
      "constant": false,
      "inputs": [
        {
          "name": "_eventType",
          "type": "bytes32"
        },
        {
          "name": "_keyType",
          "type": "bytes1"
        },
        {
          "name": "_valueType",
          "type": "bytes1"
        },
        {
          "name": "_key",
          "type": "bytes32"
        },
        {
          "name": "_value",
          "type": "bytes32"
        }
      ],
      "name": "writeEvent",
      "outputs": [
        {
          "name": "",
          "type": "uint256"
        }
      ],
      "payable": false,
      "type": "function"
    },
    {
      "constant": false,
      "inputs": [],
      "name": "kill",
      "outputs": [],
      "payable": false,
      "type": "function"
    },
    {
      "constant": false,
      "inputs": [],
      "name": "eventCount",
      "outputs": [
        {
          "name": "",
          "type": "uint256"
        }
      ],
      "payable": false,
      "type": "function"
    },
    {
      "constant": false,
      "inputs": [
        {
          "name": "role",
          "type": "bytes32"
        },
        {
          "name": "resource",
          "type": "bytes32"
        },
        {
          "name": "action",
          "type": "bytes32"
        },
        {
          "name": "attributes",
          "type": "bytes32[]"
        }
      ],
      "name": "setGrant",
      "outputs": [],
      "payable": false,
      "type": "function"
    },
    {
      "constant": false,
      "inputs": [
        {
          "name": "role",
          "type": "bytes32"
        },
        {
          "name": "action",
          "type": "bytes32"
        },
        {
          "name": "resource",
          "type": "bytes32"
        }
      ],
      "name": "canRoleActionResource",
      "outputs": [
        {
          "name": "granted",
          "type": "bool"
        },
        {
          "name": "_role",
          "type": "bytes32"
        },
        {
          "name": "_resource",
          "type": "bytes32"
        }
      ],
      "payable": false,
      "type": "function"
    },
    {
      "constant": true,
      "inputs": [],
      "name": "owner",
      "outputs": [
        {
          "name": "",
          "type": "address"
        }
      ],
      "payable": false,
      "type": "function"
    },
    {
      "constant": false,
      "inputs": [
        {
          "name": "index",
          "type": "uint256"
        }
      ],
      "name": "getGrant",
      "outputs": [
        {
          "name": "role",
          "type": "bytes32"
        },
        {
          "name": "resource",
          "type": "bytes32"
        },
        {
          "name": "action",
          "type": "bytes32"
        },
        {
          "name": "attributes",
          "type": "bytes32[]"
        }
      ],
      "payable": false,
      "type": "function"
    },
    {
      "constant": false,
      "inputs": [],
      "name": "grantCount",
      "outputs": [
        {
          "name": "",
          "type": "uint256"
        }
      ],
      "payable": false,
      "type": "function"
    },
    {
      "constant": false,
      "inputs": [
        {
          "name": "target",
          "type": "address"
        },
        {
          "name": "role",
          "type": "bytes32"
        }
      ],
      "name": "setAddressRole",
      "outputs": [],
      "payable": false,
      "type": "function"
    },
    {
      "constant": false,
      "inputs": [
        {
          "name": "_eventId",
          "type": "uint256"
        }
      ],
      "name": "readEvent",
      "outputs": [
        {
          "name": "",
          "type": "uint256"
        },
        {
          "name": "",
          "type": "address"
        },
        {
          "name": "",
          "type": "uint256"
        },
        {
          "name": "",
          "type": "bytes32"
        },
        {
          "name": "",
          "type": "bytes1"
        },
        {
          "name": "",
          "type": "bytes1"
        },
        {
          "name": "",
          "type": "bytes32"
        },
        {
          "name": "",
          "type": "bytes32"
        }
      ],
      "payable": false,
      "type": "function"
    },
    {
      "constant": false,
      "inputs": [
        {
          "name": "newOwner",
          "type": "address"
        }
      ],
      "name": "transferOwnership",
      "outputs": [],
      "payable": false,
      "type": "function"
    },
    {
      "inputs": [],
      "payable": true,
      "type": "constructor"
    },
    {
      "payable": true,
      "type": "fallback"
    },
    {
      "anonymous": false,
      "inputs": [
        {
          "indexed": false,
          "name": "Id",
          "type": "uint256"
        },
        {
          "indexed": false,
          "name": "TxOrigin",
          "type": "address"
        },
        {
          "indexed": false,
          "name": "Created",
          "type": "uint256"
        },
        {
          "indexed": false,
          "name": "EventType",
          "type": "bytes32"
        },
        {
          "indexed": false,
          "name": "KeyType",
          "type": "bytes1"
        },
        {
          "indexed": false,
          "name": "ValueType",
          "type": "bytes1"
        },
        {
          "indexed": false,
          "name": "Key",
          "type": "bytes32"
        },
        {
          "indexed": false,
          "name": "Value",
          "type": "bytes32"
        }
      ],
      "name": "EsEvent",
      "type": "event"
    },
    {
      "anonymous": false,
      "inputs": [
        {
          "indexed": false,
          "name": "test",
          "type": "bool"
        }
      ],
      "name": "DEBUG",
      "type": "event"
    },
    {
      "anonymous": false,
      "inputs": [
        {
          "indexed": false,
          "name": "role",
          "type": "bytes32"
        },
        {
          "indexed": false,
          "name": "resource",
          "type": "bytes32"
        },
        {
          "indexed": false,
          "name": "action",
          "type": "bytes32"
        },
        {
          "indexed": false,
          "name": "attributes",
          "type": "bytes32[]"
        }
      ],
      "name": "GrantEvent",
      "type": "event"
    }
  ],
  "bytecode": "0x60606040525b5b5b60008054600160a060020a03191633600160a060020a03161790555b73__Bytes32SetLib_________________________6363d4d33560037f41435f524f4c455f41535349474e4544000000000000000000000000000000006000604051602001526040517c010000000000000000000000000000000000000000000000000000000063ffffffff85160281526004810192909252602482015260440160206040518083038186803b15156100bb57600080fd5b6102c65a03f415156100cc57600080fd5b50505060405180515073__Bytes32SetLib_________________________90506363d4d33560037f41435f4752414e545f5752495454454e000000000000000000000000000000006000604051602001526040517c010000000000000000000000000000000000000000000000000000000063ffffffff85160281526004810192909252602482015260440160206040518083038186803b151561016f57600080fd5b6102c65a03f4151561018057600080fd5b505050604051805150505b60008054600160a060020a03191632600160a060020a03161790555b5b610eb9806101b76000396000f3006060604052361561009e5763ffffffff60e060020a6000350416630577a59581146100a657806335628b38146100d757806341c0e1b51461011857806371be2e4a1461012d5780637e4f395c146101525780637e7d387f146101b15780638da5cb5b146101f3578063b8cc6c9314610222578063cab42672146102a3578063d1ac2c20146102c8578063e1ba30a9146102ec578063f2fde38b1461035b575b5b600080fd5b005b34156100b157600080fd5b6100c5600160a060020a036004351661037c565b60405190815260200160405180910390f35b34156100e257600080fd5b6100c5600435600160f860020a0319602435811690604435166064356084356103d6565b60405190815260200160405180910390f35b341561012357600080fd5b6100a461050d565b005b341561013857600080fd5b6100c561051d565b60405190815260200160405180910390f35b341561015d57600080fd5b6100a46004803590602480359160443591608490606435908101908301358060208181020160405190810160405280939291908181526020018383602002808284375094965061052495505050505050565b005b34156101bc57600080fd5b6101cd600435602435604435610982565b604051921515835260208301919091526040808301919091526060909101905180910390f35b34156101fe57600080fd5b6102066109d8565b604051600160a060020a03909116815260200160405180910390f35b341561022d57600080fd5b6102386004356109e7565b604051848152602081018490526040810183905260806060820181815290820183818151815260200191508051906020019060200280838360005b8381101561028c5780820151818401525b602001610273565b505050509050019550505050505060405180910390f35b34156102ae57600080fd5b6100c5610acf565b60405190815260200160405180910390f35b34156102d357600080fd5b6100a4600160a060020a0360043516602435610ad6565b005b34156102f757600080fd5b610302600435610b67565b604051978852600160a060020a0390961660208801526040808801959095526060870193909352600160f860020a031991821660808701521660a085015260c084015260e0830191909152610100909101905180910390f35b341561036657600080fd5b6100a4600160a060020a0360043516610c35565b005b6000805433600160a060020a03908116911614806103ab575081600160a060020a031633600160a060020a0316145b15156103b657600080fd5b50600160a060020a0381166000908152600660205260409020545b919050565b60008060006103e43361037c565b9150610431827f6372656174653a616e79000000000000000000000000000000000000000000007f6576656e74000000000000000000000000000000000000000000000000000000610982565b505060005490915033600160a060020a03908116911614801590610453575080155b1561045d57600080fd5b73__EventStoreLib_________________________633bb6420360018a8a8a8a8a60006040516020015260405160e060020a63ffffffff891602815260048101969096526024860194909452600160f860020a0319928316604486015291166064840152608483015260a482015260c40160206040518083038186803b15156104e557600080fd5b6102c65a03f415156104f657600080fd5b50505060405180519350505b505095945050505050565b600054600160a060020a0316ff5b565b6001545b90565b61052c610d3a565b838360008080807f6772616e740000000000000000000000000000000000000000000000000000008614156105765760005433600160a060020a0390811691161461057657600080fd5b5b60005433600160a060020a0390811691161415610765578a8752602087018a9052604087018990526060870188905260028054600181016105b88382610d68565b916000526020600020906004020160005b5088908151815560208201516001820155604082015160028201556060820151816003019080516105fe929160200190610d9a565b505050507f02266b19b7dc2c60e47fd601ca798e7e7cc9e6ec65f1d26a77b1bb93885508af8b8b8b8b604051848152602081018490526040810183905260806060820181815290820183818151815260200191508051906020019060200280838360005b8381101561067b5780820151818401525b602001610662565b505050509050019550505050505060405180910390a187511515600760008d8c8e60405192835260208301919091526040808301919091526060909101905190819003902081526020810191909152604001600020805460ff191691151591909117905560025461075e907f41435f4752414e545f5752495454454e000000000000000000000000000000009060fb60020a600b02907f5500000000000000000000000000000000000000000000000000000000000000907f696e6465780000000000000000000000000000000000000000000000000000009060001901610c8a565b505b610973565b600160a060020a033316600090815260066020526040902054935061078b848688610982565b925092509250821561009e578a8752602087018a9052604087018990526060870188905260028054600181016105b88382610d68565b916000526020600020906004020160005b5088908151815560208201516001820155604082015160028201556060820151816003019080516105fe929160200190610d9a565b505050507f02266b19b7dc2c60e47fd601ca798e7e7cc9e6ec65f1d26a77b1bb93885508af8b8b8b8b604051848152602081018490526040810183905260806060820181815290820183818151815260200191508051906020019060200280838360005b8381101561067b5780820151818401525b602001610662565b505050509050019550505050505060405180910390a187511515600760008d8c8e60405192835260208301919091526040808301919091526060909101905190819003902081526020810191909152604001600020805460ff191691151591909117905560025461075e907f41435f4752414e545f5752495454454e000000000000000000000000000000009060fb60020a600b02907f5500000000000000000000000000000000000000000000000000000000000000907f696e6465780000000000000000000000000000000000000000000000000000009060001901610c8a565b505b610973565b600080fd5b5b5b5050505050505050505050565b600080600060076000878787604051928352602083019190915260408083019190915260609091019051908190039020815260208101919091526040016000205460ff1692508591508390505b93509350939050565b600054600160a060020a031681565b60008060006109f4610de8565b6109fc610d3a565b6002805487908110610a0a57fe5b906000526020600020906004020160005b50608060405190810160409081528254825260018301546020808401919091526002840154828401526003840180549394936060860193919290918282029091019051908101604052809291908181526020018280548015610a9d57602002820191906000526020600020905b81548152600190910190602001808311610a88575b50505050508152505090508060000151816020015182604001518360600151929750909550935091505b509193509193565b6002545b90565b60005433600160a060020a0390811691161415610b6157600160a060020a0382166000818152600660205260409020829055610b5f907f41435f524f4c455f41535349474e454400000000000000000000000000000000907f41000000000000000000000000000000000000000000000000000000000000009060fb60020a600b029085610c8a565b505b5b5b5050565b60008060008060008060008073__EventStoreLib_________________________63a057fd5e60018b6000604051610100015260405160e060020a63ffffffff8516028152600481019290925260248201526044016101006040518083038186803b1515610bd457600080fd5b6102c65a03f41515610be557600080fd5b50505060405180519060200180519060200180519060200180519060200180519060200180519060200180519060200180519050975097509750975097509750975097505b919395975091939597565b60005433600160a060020a0390811691161415610c8457600160a060020a03811615610c84576000805473ffffffffffffffffffffffffffffffffffffffff1916600160a060020a0383161790555b5b5b5b50565b600073__EventStoreLib_________________________633bb642036001888888888860006040516020015260405160e060020a63ffffffff891602815260048101969096526024860194909452600160f860020a0319928316604486015291166064840152608483015260a482015260c40160206040518083038186803b1515610d1457600080fd5b6102c65a03f41515610d2557600080fd5b50505060405180519150505b95945050505050565b608060405190810160409081526000808352602083018190529082015260608101610d63610de8565b905290565b815481835581811511610b5f57600402816004028360005260206000209182019101610b5f9190610e0c565b5b505050565b828054828255906000526020600020908101928215610dd7579160200282015b82811115610dd75782518255602090920191600190910190610dba565b5b50610de4929150610e4a565b5090565b60206040519081016040526000815290565b60206040519081016040526000815290565b61052191905b80821115610de45760008082556001820181905560028201819055610e3a6003830182610e6b565b50600401610e12565b5090565b90565b61052191905b80821115610de45760008155600101610e50565b5090565b90565b5080546000825590600052602060002090810190610c849190610e4a565b5b505600a165627a7a72305820672423330c44fc313b37add12acc9ad53ea65c4cac039f46d23b0665f32992960029",
  "deployedBytecode": "0x6060604052361561009e5763ffffffff60e060020a6000350416630577a59581146100a657806335628b38146100d757806341c0e1b51461011857806371be2e4a1461012d5780637e4f395c146101525780637e7d387f146101b15780638da5cb5b146101f3578063b8cc6c9314610222578063cab42672146102a3578063d1ac2c20146102c8578063e1ba30a9146102ec578063f2fde38b1461035b575b5b600080fd5b005b34156100b157600080fd5b6100c5600160a060020a036004351661037c565b60405190815260200160405180910390f35b34156100e257600080fd5b6100c5600435600160f860020a0319602435811690604435166064356084356103d6565b60405190815260200160405180910390f35b341561012357600080fd5b6100a461050d565b005b341561013857600080fd5b6100c561051d565b60405190815260200160405180910390f35b341561015d57600080fd5b6100a46004803590602480359160443591608490606435908101908301358060208181020160405190810160405280939291908181526020018383602002808284375094965061052495505050505050565b005b34156101bc57600080fd5b6101cd600435602435604435610982565b604051921515835260208301919091526040808301919091526060909101905180910390f35b34156101fe57600080fd5b6102066109d8565b604051600160a060020a03909116815260200160405180910390f35b341561022d57600080fd5b6102386004356109e7565b604051848152602081018490526040810183905260806060820181815290820183818151815260200191508051906020019060200280838360005b8381101561028c5780820151818401525b602001610273565b505050509050019550505050505060405180910390f35b34156102ae57600080fd5b6100c5610acf565b60405190815260200160405180910390f35b34156102d357600080fd5b6100a4600160a060020a0360043516602435610ad6565b005b34156102f757600080fd5b610302600435610b67565b604051978852600160a060020a0390961660208801526040808801959095526060870193909352600160f860020a031991821660808701521660a085015260c084015260e0830191909152610100909101905180910390f35b341561036657600080fd5b6100a4600160a060020a0360043516610c35565b005b6000805433600160a060020a03908116911614806103ab575081600160a060020a031633600160a060020a0316145b15156103b657600080fd5b50600160a060020a0381166000908152600660205260409020545b919050565b60008060006103e43361037c565b9150610431827f6372656174653a616e79000000000000000000000000000000000000000000007f6576656e74000000000000000000000000000000000000000000000000000000610982565b505060005490915033600160a060020a03908116911614801590610453575080155b1561045d57600080fd5b73__EventStoreLib_________________________633bb6420360018a8a8a8a8a60006040516020015260405160e060020a63ffffffff891602815260048101969096526024860194909452600160f860020a0319928316604486015291166064840152608483015260a482015260c40160206040518083038186803b15156104e557600080fd5b6102c65a03f415156104f657600080fd5b50505060405180519350505b505095945050505050565b600054600160a060020a0316ff5b565b6001545b90565b61052c610d3a565b838360008080807f6772616e740000000000000000000000000000000000000000000000000000008614156105765760005433600160a060020a0390811691161461057657600080fd5b5b60005433600160a060020a0390811691161415610765578a8752602087018a9052604087018990526060870188905260028054600181016105b88382610d68565b916000526020600020906004020160005b5088908151815560208201516001820155604082015160028201556060820151816003019080516105fe929160200190610d9a565b505050507f02266b19b7dc2c60e47fd601ca798e7e7cc9e6ec65f1d26a77b1bb93885508af8b8b8b8b604051848152602081018490526040810183905260806060820181815290820183818151815260200191508051906020019060200280838360005b8381101561067b5780820151818401525b602001610662565b505050509050019550505050505060405180910390a187511515600760008d8c8e60405192835260208301919091526040808301919091526060909101905190819003902081526020810191909152604001600020805460ff191691151591909117905560025461075e907f41435f4752414e545f5752495454454e000000000000000000000000000000009060fb60020a600b02907f5500000000000000000000000000000000000000000000000000000000000000907f696e6465780000000000000000000000000000000000000000000000000000009060001901610c8a565b505b610973565b600160a060020a033316600090815260066020526040902054935061078b848688610982565b925092509250821561009e578a8752602087018a9052604087018990526060870188905260028054600181016105b88382610d68565b916000526020600020906004020160005b5088908151815560208201516001820155604082015160028201556060820151816003019080516105fe929160200190610d9a565b505050507f02266b19b7dc2c60e47fd601ca798e7e7cc9e6ec65f1d26a77b1bb93885508af8b8b8b8b604051848152602081018490526040810183905260806060820181815290820183818151815260200191508051906020019060200280838360005b8381101561067b5780820151818401525b602001610662565b505050509050019550505050505060405180910390a187511515600760008d8c8e60405192835260208301919091526040808301919091526060909101905190819003902081526020810191909152604001600020805460ff191691151591909117905560025461075e907f41435f4752414e545f5752495454454e000000000000000000000000000000009060fb60020a600b02907f5500000000000000000000000000000000000000000000000000000000000000907f696e6465780000000000000000000000000000000000000000000000000000009060001901610c8a565b505b610973565b600080fd5b5b5b5050505050505050505050565b600080600060076000878787604051928352602083019190915260408083019190915260609091019051908190039020815260208101919091526040016000205460ff1692508591508390505b93509350939050565b600054600160a060020a031681565b60008060006109f4610de8565b6109fc610d3a565b6002805487908110610a0a57fe5b906000526020600020906004020160005b50608060405190810160409081528254825260018301546020808401919091526002840154828401526003840180549394936060860193919290918282029091019051908101604052809291908181526020018280548015610a9d57602002820191906000526020600020905b81548152600190910190602001808311610a88575b50505050508152505090508060000151816020015182604001518360600151929750909550935091505b509193509193565b6002545b90565b60005433600160a060020a0390811691161415610b6157600160a060020a0382166000818152600660205260409020829055610b5f907f41435f524f4c455f41535349474e454400000000000000000000000000000000907f41000000000000000000000000000000000000000000000000000000000000009060fb60020a600b029085610c8a565b505b5b5b5050565b60008060008060008060008073__EventStoreLib_________________________63a057fd5e60018b6000604051610100015260405160e060020a63ffffffff8516028152600481019290925260248201526044016101006040518083038186803b1515610bd457600080fd5b6102c65a03f41515610be557600080fd5b50505060405180519060200180519060200180519060200180519060200180519060200180519060200180519060200180519050975097509750975097509750975097505b919395975091939597565b60005433600160a060020a0390811691161415610c8457600160a060020a03811615610c84576000805473ffffffffffffffffffffffffffffffffffffffff1916600160a060020a0383161790555b5b5b5b50565b600073__EventStoreLib_________________________633bb642036001888888888860006040516020015260405160e060020a63ffffffff891602815260048101969096526024860194909452600160f860020a0319928316604486015291166064840152608483015260a482015260c40160206040518083038186803b1515610d1457600080fd5b6102c65a03f41515610d2557600080fd5b50505060405180519150505b95945050505050565b608060405190810160409081526000808352602083018190529082015260608101610d63610de8565b905290565b815481835581811511610b5f57600402816004028360005260206000209182019101610b5f9190610e0c565b5b505050565b828054828255906000526020600020908101928215610dd7579160200282015b82811115610dd75782518255602090920191600190910190610dba565b5b50610de4929150610e4a565b5090565b60206040519081016040526000815290565b60206040519081016040526000815290565b61052191905b80821115610de45760008082556001820181905560028201819055610e3a6003830182610e6b565b50600401610e12565b5090565b90565b61052191905b80821115610de45760008155600101610e50565b5090565b90565b5080546000825590600052602060002090810190610c849190610e4a565b5b505600a165627a7a72305820672423330c44fc313b37add12acc9ad53ea65c4cac039f46d23b0665f32992960029",
  "source": "pragma solidity ^0.4.11;\n\nimport '../../../zeppelin/lifecycle/Killable.sol';\nimport '../../../Security/RBAC.sol';\n\ncontract RBACEventStore is RBAC {\n\n  // FALLBACK\n  function () payable { throw; }\n  \n  // CONSTRUCTOR  \n  function RBACEventStore() payable {\n    owner = tx.origin;\n  }\n\n  function eventCount() \n  returns (uint)\n  {\n    return store.events.length;\n  }\n\n  function writeEvent(\n    bytes32 _eventType, \n    bytes1 _keyType,\n    bytes1 _valueType,\n    bytes32 _key,\n    bytes32 _value\n  ) \n    public \n    returns (uint)\n  {\n    // Check access control here before writing events...\n    bytes32 txOriginRole = getAddressRole(msg.sender);\n    var (granted,,) = canRoleActionResource(txOriginRole, bytes32(\"create:any\"), bytes32(\"event\"));\n    if (msg.sender != owner && !granted){\n      throw;\n    }\n    return EventStoreLib.writeEvent(\n      store, \n      _eventType, \n      _keyType,\n      _valueType,\n      _key,\n      _value\n    );\n  }\n\n  // READ EVENT\n  function readEvent(uint _eventId) \n    public \n    returns (\n      uint, \n      address, \n      uint, \n      bytes32, \n      bytes1,\n      bytes1,\n      bytes32,\n      bytes32\n    )\n  {\n    return EventStoreLib.readEvent(store, _eventId);\n  }\n\n  event EsEvent(\n    uint Id,\n    address TxOrigin,\n    uint Created,\n\n    bytes32 EventType,\n\n    bytes1 KeyType,\n    bytes1 ValueType,\n\n    bytes32 Key,\n    bytes32 Value\n  );\n}",
  "sourcePath": "/Users/orie/TransmuteIndustries/_CORE/transmute-framework/contracts/TransmuteFramework/EventStore/Bases/RBACEventStore/RBACEventStore.sol",
  "schemaVersion": "1.0.0",
  "updatedAt": "2017-10-02T22:04:58.974Z"
}