{
  "contractName": "RBACEventStoreFactory",
  "abi": [
    {
      "constant": false,
      "inputs": [
        {
          "name": "target",
          "type": "address"
        }
      ],
      "name": "getAddressRole",
      "outputs": [
        {
          "name": "",
          "type": "bytes32"
        }
      ],
      "payable": false,
      "type": "function"
    },
    {
      "constant": false,
      "inputs": [],
      "name": "kill",
      "outputs": [],
      "payable": false,
      "type": "function"
    },
    {
      "constant": false,
      "inputs": [],
      "name": "createEventStore",
      "outputs": [
        {
          "name": "",
          "type": "address"
        }
      ],
      "payable": false,
      "type": "function"
    },
    {
      "constant": false,
      "inputs": [],
      "name": "debug",
      "outputs": [
        {
          "name": "",
          "type": "uint256"
        }
      ],
      "payable": false,
      "type": "function"
    },
    {
      "constant": false,
      "inputs": [],
      "name": "eventCount",
      "outputs": [
        {
          "name": "",
          "type": "uint256"
        }
      ],
      "payable": false,
      "type": "function"
    },
    {
      "constant": false,
      "inputs": [
        {
          "name": "role",
          "type": "bytes32"
        },
        {
          "name": "resource",
          "type": "bytes32"
        },
        {
          "name": "action",
          "type": "bytes32"
        },
        {
          "name": "attributes",
          "type": "bytes32[]"
        }
      ],
      "name": "setGrant",
      "outputs": [],
      "payable": false,
      "type": "function"
    },
    {
      "constant": false,
      "inputs": [
        {
          "name": "role",
          "type": "bytes32"
        },
        {
          "name": "action",
          "type": "bytes32"
        },
        {
          "name": "resource",
          "type": "bytes32"
        }
      ],
      "name": "canRoleActionResource",
      "outputs": [
        {
          "name": "granted",
          "type": "bool"
        },
        {
          "name": "_role",
          "type": "bytes32"
        },
        {
          "name": "_resource",
          "type": "bytes32"
        }
      ],
      "payable": false,
      "type": "function"
    },
    {
      "constant": true,
      "inputs": [],
      "name": "owner",
      "outputs": [
        {
          "name": "",
          "type": "address"
        }
      ],
      "payable": false,
      "type": "function"
    },
    {
      "constant": true,
      "inputs": [],
      "name": "getEventStores",
      "outputs": [
        {
          "name": "",
          "type": "address[]"
        }
      ],
      "payable": false,
      "type": "function"
    },
    {
      "constant": false,
      "inputs": [
        {
          "name": "index",
          "type": "uint256"
        }
      ],
      "name": "getGrant",
      "outputs": [
        {
          "name": "role",
          "type": "bytes32"
        },
        {
          "name": "resource",
          "type": "bytes32"
        },
        {
          "name": "action",
          "type": "bytes32"
        },
        {
          "name": "attributes",
          "type": "bytes32[]"
        }
      ],
      "payable": false,
      "type": "function"
    },
    {
      "constant": false,
      "inputs": [],
      "name": "grantCount",
      "outputs": [
        {
          "name": "",
          "type": "uint256"
        }
      ],
      "payable": false,
      "type": "function"
    },
    {
      "constant": false,
      "inputs": [
        {
          "name": "_address",
          "type": "address"
        }
      ],
      "name": "killEventStore",
      "outputs": [],
      "payable": false,
      "type": "function"
    },
    {
      "constant": true,
      "inputs": [],
      "name": "getEventStoresByCreator",
      "outputs": [
        {
          "name": "",
          "type": "address[]"
        }
      ],
      "payable": false,
      "type": "function"
    },
    {
      "constant": false,
      "inputs": [
        {
          "name": "target",
          "type": "address"
        },
        {
          "name": "role",
          "type": "bytes32"
        }
      ],
      "name": "setAddressRole",
      "outputs": [],
      "payable": false,
      "type": "function"
    },
    {
      "constant": false,
      "inputs": [
        {
          "name": "_eventId",
          "type": "uint256"
        }
      ],
      "name": "readEvent",
      "outputs": [
        {
          "name": "",
          "type": "uint256"
        },
        {
          "name": "",
          "type": "address"
        },
        {
          "name": "",
          "type": "uint256"
        },
        {
          "name": "",
          "type": "bytes32"
        },
        {
          "name": "",
          "type": "bytes1"
        },
        {
          "name": "",
          "type": "bytes1"
        },
        {
          "name": "",
          "type": "bytes32"
        },
        {
          "name": "",
          "type": "bytes32"
        }
      ],
      "payable": false,
      "type": "function"
    },
    {
      "constant": false,
      "inputs": [
        {
          "name": "newOwner",
          "type": "address"
        }
      ],
      "name": "transferOwnership",
      "outputs": [],
      "payable": false,
      "type": "function"
    },
    {
      "inputs": [],
      "payable": true,
      "type": "constructor"
    },
    {
      "payable": true,
      "type": "fallback"
    },
    {
      "anonymous": false,
      "inputs": [
        {
          "indexed": false,
          "name": "test",
          "type": "bool"
        }
      ],
      "name": "DEBUG",
      "type": "event"
    },
    {
      "anonymous": false,
      "inputs": [
        {
          "indexed": false,
          "name": "Id",
          "type": "uint256"
        },
        {
          "indexed": false,
          "name": "TxOrigin",
          "type": "address"
        },
        {
          "indexed": false,
          "name": "Created",
          "type": "uint256"
        },
        {
          "indexed": false,
          "name": "EventType",
          "type": "bytes32"
        },
        {
          "indexed": false,
          "name": "KeyType",
          "type": "bytes1"
        },
        {
          "indexed": false,
          "name": "ValueType",
          "type": "bytes1"
        },
        {
          "indexed": false,
          "name": "Key",
          "type": "bytes32"
        },
        {
          "indexed": false,
          "name": "Value",
          "type": "bytes32"
        }
      ],
      "name": "EsEvent",
      "type": "event"
    },
    {
      "anonymous": false,
      "inputs": [
        {
          "indexed": false,
          "name": "role",
          "type": "bytes32"
        },
        {
          "indexed": false,
          "name": "resource",
          "type": "bytes32"
        },
        {
          "indexed": false,
          "name": "action",
          "type": "bytes32"
        },
        {
          "indexed": false,
          "name": "attributes",
          "type": "bytes32[]"
        }
      ],
      "name": "GrantEvent",
      "type": "event"
    }
  ],
  "bytecode": "0x60606040525b5b5b60008054600160a060020a03191633600160a060020a03161790555b73__Bytes32SetLib_________________________6363d4d33560037f41435f524f4c455f41535349474e4544000000000000000000000000000000006000604051602001526040517c010000000000000000000000000000000000000000000000000000000063ffffffff85160281526004810192909252602482015260440160206040518083038186803b15156100bb57600080fd5b6102c65a03f415156100cc57600080fd5b50505060405180515073__Bytes32SetLib_________________________90506363d4d33560037f41435f4752414e545f5752495454454e000000000000000000000000000000006000604051602001526040517c010000000000000000000000000000000000000000000000000000000063ffffffff85160281526004810192909252602482015260440160206040518083038186803b151561016f57600080fd5b6102c65a03f4151561018057600080fd5b505050604051805150505b5b5b6126998061019c6000396000f30060606040523615620000db5763ffffffff60e060020a6000350416630577a5958114620000e357806341c0e1b51462000117578063468d427e146200012f578063588ee29b146200016157806371be2e4a14620001895780637e4f395c14620001b15780637e7d387f14620002135780638da5cb5b14620002585780638dc668d7146200028a578063b8cc6c9314620002f6578063cab42672146200037c578063ccac2d7514620003a4578063ce844b5a14620003c8578063d1ac2c201462000434578063e1ba30a9146200045b578063f2fde38b14620004e5575b5b600080fd5b005b3415620000ef57600080fd5b62000105600160a060020a036004351662000509565b60405190815260200160405180910390f35b34156200012357600080fd5b620000e162000565565b005b34156200013b57600080fd5b6200014562000575565b604051600160a060020a03909116815260200160405180910390f35b34156200016d57600080fd5b62000105620007b9565b60405190815260200160405180910390f35b34156200019557600080fd5b62000105620007bf565b60405190815260200160405180910390f35b3415620001bd57600080fd5b620000e160048035906024803591604435916084906064359081019083013580602081810201604051908101604052809392919081815260200183836020028082843750949650620007c695505050505050565b005b34156200021f57600080fd5b6200023260043560243560443562000c3e565b604051921515835260208301919091526040808301919091526060909101905180910390f35b34156200026457600080fd5b6200014562000c94565b604051600160a060020a03909116815260200160405180910390f35b34156200029657600080fd5b620002a062000ca3565b60405160208082528190810183818151815260200191508051906020019060200280838360005b83811015620002e25780820151818401525b602001620002c7565b505050509050019250505060405180910390f35b34156200030257600080fd5b6200030f60043562000d0f565b604051848152602081018490526040810183905260806060820181815290820183818151815260200191508051906020019060200280838360005b83811015620003655780820151818401525b6020016200034a565b505050509050019550505050505060405180910390f35b34156200038857600080fd5b6200010562000dfe565b60405190815260200160405180910390f35b3415620003b057600080fd5b620000e1600160a060020a036004351662000e05565b005b3415620003d457600080fd5b620002a062001174565b60405160208082528190810183818151815260200191508051906020019060200280838360005b83811015620002e25780820151818401525b602001620002c7565b505050509050019250505060405180910390f35b34156200044057600080fd5b620000e1600160a060020a036004351660243562001207565b005b34156200046757600080fd5b6200047460043562001282565b604051978852600160a060020a03909616602088015260408088019590955260608701939093527fff0000000000000000000000000000000000000000000000000000000000000091821660808701521660a085015260c084015260e0830191909152610100909101905180910390f35b3415620004f157600080fd5b620000e1600160a060020a036004351662001352565b005b6000805433600160a060020a039081169116148062000539575081600160a060020a031633600160a060020a0316145b15156200054557600080fd5b50600160a060020a0381166000908152600660205260409020545b919050565b600054600160a060020a0316ff5b565b600080600080620005863362000509565b9250620005d5837f6372656174653a616e79000000000000000000000000000000000000000000007f6576656e7473746f72650000000000000000000000000000000000000000000062000c3e565b505060005490925033600160a060020a03908116911614801590620005f8575081155b156200060357600080fd5b6200060d62001473565b604051809103906000f08015156200062457600080fd5b905073__AddressSetLib_________________________631e40161660098360006040516020015260405160e060020a63ffffffff85160281526004810192909252600160a060020a0316602482015260440160206040518083038186803b15156200068f57600080fd5b6102c65a03f41515620006a157600080fd5b50505060405180515050600160a060020a03331660009081526008602052604080822073__AddressSetLib_________________________92631e40161692859190516020015260405160e060020a63ffffffff85160281526004810192909252600160a060020a0316602482015260440160206040518083038186803b15156200072b57600080fd5b6102c65a03f415156200073d57600080fd5b505050604051805150620007ae90507f45535f435245415445440000000000000000000000000000000000000000000060fb60020a600b0260f860020a6041027f6164647265737300000000000000000000000000000000000000000000000000600160a060020a038616620013a9565b508093505b50505090565b60005b90565b6001545b90565b620007d062001484565b838360008080807f6772616e740000000000000000000000000000000000000000000000000000008614156200081c5760005433600160a060020a039081169116146200081c57600080fd5b5b60005433600160a060020a039081169116141562000a15578a8752602087018a905260408701899052606087018890526002805460018101620008618382620014b4565b916000526020600020906004020160005b508890815181556020820151600182015560408201516002820155606082015181600301908051620008a9929160200190620014e9565b505050507f02266b19b7dc2c60e47fd601ca798e7e7cc9e6ec65f1d26a77b1bb93885508af8b8b8b8b604051848152602081018490526040810183905260806060820181815290820183818151815260200191508051906020019060200280838360005b83811015620009285780820151818401525b6020016200090d565b505050509050019550505050505060405180910390a187511515600760008d8c8e60405192835260208301919091526040808301919091526060909101905190819003902081526020810191909152604001600020805460ff191691151591909117905560025462000a0d907f41435f4752414e545f5752495454454e000000000000000000000000000000009060fb60020a600b02907f5500000000000000000000000000000000000000000000000000000000000000907f696e6465780000000000000000000000000000000000000000000000000000009060001901620013a9565b505b62000c2f565b600160a060020a033316600090815260066020526040902054935062000a3d84868862000c3e565b9250925092508215620000db578a8752602087018a905260408701899052606087018890526002805460018101620008618382620014b4565b916000526020600020906004020160005b508890815181556020820151600182015560408201516002820155606082015181600301908051620008a9929160200190620014e9565b505050507f02266b19b7dc2c60e47fd601ca798e7e7cc9e6ec65f1d26a77b1bb93885508af8b8b8b8b604051848152602081018490526040810183905260806060820181815290820183818151815260200191508051906020019060200280838360005b83811015620009285780820151818401525b6020016200090d565b505050509050019550505050505060405180910390a187511515600760008d8c8e60405192835260208301919091526040808301919091526060909101905190819003902081526020810191909152604001600020805460ff191691151591909117905560025462000a0d907f41435f4752414e545f5752495454454e000000000000000000000000000000009060fb60020a600b02907f5500000000000000000000000000000000000000000000000000000000000000907f696e6465780000000000000000000000000000000000000000000000000000009060001901620013a9565b505b62000c2f565b600080fd5b5b5b5050505050505050505050565b600080600060076000878787604051928352602083019190915260408083019190915260609091019051908190039020815260208101919091526040016000205460ff1692508591508390505b93509350939050565b600054600160a060020a031681565b62000cad6200153c565b6009805460208082020160405190810160405280929190818152602001828054801562000d0457602002820191906000526020600020905b8154600160a060020a0316815260019091019060200180831162000ce5575b505050505090505b90565b600080600062000d1e6200153c565b62000d2862001484565b600280548790811062000d3757fe5b906000526020600020906004020160005b5060806040519081016040908152825482526001830154602080840191909152600284015482840152600384018054939493606086019391929091828202909101905190810160405280929190818152602001828054801562000dcc57602002820191906000526020600020905b8154815260019091019060200180831162000db6575b50505050508152505090508060000151816020015182604001518360600151929750909550935091505b509193509193565b6002545b90565b60008173__AddressSetLib_________________________63dc02e70d600983856040516020015260405160e060020a63ffffffff85160281526004810192909252600160a060020a0316602482015260440160206040518083038186803b151562000e7057600080fd5b6102c65a03f4151562000e8257600080fd5b50505060405180519050151562000e9857600080fd5b33600160a060020a031630600160a060020a0316638da5cb5b6000604051602001526040518163ffffffff1660e060020a028152600401602060405180830381600087803b151562000ee957600080fd5b6102c65a03f1151562000efb57600080fd5b50505060405180519050600160a060020a031614151562000f1b57600080fd5b8291506008600083600160a060020a0316638da5cb5b6000604051602001526040518163ffffffff1660e060020a028152600401602060405180830381600087803b151562000f6957600080fd5b6102c65a03f1151562000f7b57600080fd5b50505060405180519050600160a060020a0316600160a060020a0316815260200190815260200160002073__AddressSetLib_________________________63499b67d990918560006040516020015260405160e060020a63ffffffff85160281526004810192909252600160a060020a0316602482015260440160206040518083038186803b15156200100e57600080fd5b6102c65a03f415156200102057600080fd5b50505060405180515073__AddressSetLib_________________________905063499b67d960098560006040516020015260405160e060020a63ffffffff85160281526004810192909252600160a060020a0316602482015260440160206040518083038186803b15156200109457600080fd5b6102c65a03f41515620010a657600080fd5b50505060405180515050600160a060020a0382166341c0e1b56040518163ffffffff1660e060020a028152600401600060405180830381600087803b1515620010ee57600080fd5b6102c65a03f115156200110057600080fd5b5050506200116c7f45535f44455354524f594544000000000000000000000000000000000000000060fb60020a600b0260f860020a6041027f616464726573730000000000000000000000000000000000000000000000000087600160a060020a0316600102620013a9565b505b5b505050565b6200117e6200153c565b6008600033600160a060020a0316600160a060020a0316815260200190815260200160002060000180548060200260200160405190810160405280929190818152602001828054801562000d0457602002820191906000526020600020905b8154600160a060020a0316815260019091019060200180831162000ce5575b505050505090505b90565b60005433600160a060020a03908116911614156200127c57600160a060020a03821660008181526006602052604090208290556200116e907f41435f524f4c455f41535349474e4544000000000000000000000000000000009060f860020a6041029060fb60020a600b029085620013a9565b505b5b5b5050565b60008060008060008060008073__EventStoreLib_________________________63a057fd5e60018b6000604051610100015260405160e060020a63ffffffff8516028152600481019290925260248201526044016101006040518083038186803b1515620012f057600080fd5b6102c65a03f415156200130257600080fd5b50505060405180519060200180519060200180519060200180519060200180519060200180519060200180519060200180519050975097509750975097509750975097505b919395975091939597565b60005433600160a060020a0390811691161415620013a357600160a060020a03811615620013a3576000805473ffffffffffffffffffffffffffffffffffffffff1916600160a060020a0383161790555b5b5b5b50565b600073__EventStoreLib_________________________633bb642036001888888888860006040516020015260405160e060020a63ffffffff8916028152600481019690965260248601949094527fff00000000000000000000000000000000000000000000000000000000000000928316604486015291166064840152608483015260a482015260c40160206040518083038186803b15156200144c57600080fd5b6102c65a03f415156200145e57600080fd5b50505060405180519150505b95945050505050565b60405161107080620015fe83390190565b608060405190810160409081526000808352602083018190529082015260608101620014af6200153c565b905290565b8154818355818115116200116e576004028160040283600052602060002091820191016200116e919062001572565b5b505050565b82805482825590600052602060002090810192821562001529579160200282015b828111156200152957825182556020909201916001909101906200150a565b5b5062001538929150620015b5565b5090565b60206040519081016040526000815290565b60206040519081016040526000815290565b60206040519081016040526000815290565b620007bc91905b80821115620015385760008082556001820181905560028201819055620015a46003830182620015d9565b5060040162001579565b5090565b90565b620007bc91905b80821115620015385760008155600101620015bc565b5090565b90565b5080546000825590600052602060002090810190620013a39190620015b5565b5b50560060606040525b5b5b60008054600160a060020a03191633600160a060020a03161790555b73__Bytes32SetLib_________________________6363d4d33560037f41435f524f4c455f41535349474e4544000000000000000000000000000000006000604051602001526040517c010000000000000000000000000000000000000000000000000000000063ffffffff85160281526004810192909252602482015260440160206040518083038186803b15156100bb57600080fd5b6102c65a03f415156100cc57600080fd5b50505060405180515073__Bytes32SetLib_________________________90506363d4d33560037f41435f4752414e545f5752495454454e000000000000000000000000000000006000604051602001526040517c010000000000000000000000000000000000000000000000000000000063ffffffff85160281526004810192909252602482015260440160206040518083038186803b151561016f57600080fd5b6102c65a03f4151561018057600080fd5b505050604051805150505b60008054600160a060020a03191632600160a060020a03161790555b5b610eb9806101b76000396000f3006060604052361561009e5763ffffffff60e060020a6000350416630577a59581146100a657806335628b38146100d757806341c0e1b51461011857806371be2e4a1461012d5780637e4f395c146101525780637e7d387f146101b15780638da5cb5b146101f3578063b8cc6c9314610222578063cab42672146102a3578063d1ac2c20146102c8578063e1ba30a9146102ec578063f2fde38b1461035b575b5b600080fd5b005b34156100b157600080fd5b6100c5600160a060020a036004351661037c565b60405190815260200160405180910390f35b34156100e257600080fd5b6100c5600435600160f860020a0319602435811690604435166064356084356103d6565b60405190815260200160405180910390f35b341561012357600080fd5b6100a461050d565b005b341561013857600080fd5b6100c561051d565b60405190815260200160405180910390f35b341561015d57600080fd5b6100a46004803590602480359160443591608490606435908101908301358060208181020160405190810160405280939291908181526020018383602002808284375094965061052495505050505050565b005b34156101bc57600080fd5b6101cd600435602435604435610982565b604051921515835260208301919091526040808301919091526060909101905180910390f35b34156101fe57600080fd5b6102066109d8565b604051600160a060020a03909116815260200160405180910390f35b341561022d57600080fd5b6102386004356109e7565b604051848152602081018490526040810183905260806060820181815290820183818151815260200191508051906020019060200280838360005b8381101561028c5780820151818401525b602001610273565b505050509050019550505050505060405180910390f35b34156102ae57600080fd5b6100c5610acf565b60405190815260200160405180910390f35b34156102d357600080fd5b6100a4600160a060020a0360043516602435610ad6565b005b34156102f757600080fd5b610302600435610b67565b604051978852600160a060020a0390961660208801526040808801959095526060870193909352600160f860020a031991821660808701521660a085015260c084015260e0830191909152610100909101905180910390f35b341561036657600080fd5b6100a4600160a060020a0360043516610c35565b005b6000805433600160a060020a03908116911614806103ab575081600160a060020a031633600160a060020a0316145b15156103b657600080fd5b50600160a060020a0381166000908152600660205260409020545b919050565b60008060006103e43361037c565b9150610431827f6372656174653a616e79000000000000000000000000000000000000000000007f6576656e74000000000000000000000000000000000000000000000000000000610982565b505060005490915033600160a060020a03908116911614801590610453575080155b1561045d57600080fd5b73__EventStoreLib_________________________633bb6420360018a8a8a8a8a60006040516020015260405160e060020a63ffffffff891602815260048101969096526024860194909452600160f860020a0319928316604486015291166064840152608483015260a482015260c40160206040518083038186803b15156104e557600080fd5b6102c65a03f415156104f657600080fd5b50505060405180519350505b505095945050505050565b600054600160a060020a0316ff5b565b6001545b90565b61052c610d3a565b838360008080807f6772616e740000000000000000000000000000000000000000000000000000008614156105765760005433600160a060020a0390811691161461057657600080fd5b5b60005433600160a060020a0390811691161415610765578a8752602087018a9052604087018990526060870188905260028054600181016105b88382610d68565b916000526020600020906004020160005b5088908151815560208201516001820155604082015160028201556060820151816003019080516105fe929160200190610d9a565b505050507f02266b19b7dc2c60e47fd601ca798e7e7cc9e6ec65f1d26a77b1bb93885508af8b8b8b8b604051848152602081018490526040810183905260806060820181815290820183818151815260200191508051906020019060200280838360005b8381101561067b5780820151818401525b602001610662565b505050509050019550505050505060405180910390a187511515600760008d8c8e60405192835260208301919091526040808301919091526060909101905190819003902081526020810191909152604001600020805460ff191691151591909117905560025461075e907f41435f4752414e545f5752495454454e000000000000000000000000000000009060fb60020a600b02907f5500000000000000000000000000000000000000000000000000000000000000907f696e6465780000000000000000000000000000000000000000000000000000009060001901610c8a565b505b610973565b600160a060020a033316600090815260066020526040902054935061078b848688610982565b925092509250821561009e578a8752602087018a9052604087018990526060870188905260028054600181016105b88382610d68565b916000526020600020906004020160005b5088908151815560208201516001820155604082015160028201556060820151816003019080516105fe929160200190610d9a565b505050507f02266b19b7dc2c60e47fd601ca798e7e7cc9e6ec65f1d26a77b1bb93885508af8b8b8b8b604051848152602081018490526040810183905260806060820181815290820183818151815260200191508051906020019060200280838360005b8381101561067b5780820151818401525b602001610662565b505050509050019550505050505060405180910390a187511515600760008d8c8e60405192835260208301919091526040808301919091526060909101905190819003902081526020810191909152604001600020805460ff191691151591909117905560025461075e907f41435f4752414e545f5752495454454e000000000000000000000000000000009060fb60020a600b02907f5500000000000000000000000000000000000000000000000000000000000000907f696e6465780000000000000000000000000000000000000000000000000000009060001901610c8a565b505b610973565b600080fd5b5b5b5050505050505050505050565b600080600060076000878787604051928352602083019190915260408083019190915260609091019051908190039020815260208101919091526040016000205460ff1692508591508390505b93509350939050565b600054600160a060020a031681565b60008060006109f4610de8565b6109fc610d3a565b6002805487908110610a0a57fe5b906000526020600020906004020160005b50608060405190810160409081528254825260018301546020808401919091526002840154828401526003840180549394936060860193919290918282029091019051908101604052809291908181526020018280548015610a9d57602002820191906000526020600020905b81548152600190910190602001808311610a88575b50505050508152505090508060000151816020015182604001518360600151929750909550935091505b509193509193565b6002545b90565b60005433600160a060020a0390811691161415610b6157600160a060020a0382166000818152600660205260409020829055610b5f907f41435f524f4c455f41535349474e454400000000000000000000000000000000907f41000000000000000000000000000000000000000000000000000000000000009060fb60020a600b029085610c8a565b505b5b5b5050565b60008060008060008060008073__EventStoreLib_________________________63a057fd5e60018b6000604051610100015260405160e060020a63ffffffff8516028152600481019290925260248201526044016101006040518083038186803b1515610bd457600080fd5b6102c65a03f41515610be557600080fd5b50505060405180519060200180519060200180519060200180519060200180519060200180519060200180519060200180519050975097509750975097509750975097505b919395975091939597565b60005433600160a060020a0390811691161415610c8457600160a060020a03811615610c84576000805473ffffffffffffffffffffffffffffffffffffffff1916600160a060020a0383161790555b5b5b5b50565b600073__EventStoreLib_________________________633bb642036001888888888860006040516020015260405160e060020a63ffffffff891602815260048101969096526024860194909452600160f860020a0319928316604486015291166064840152608483015260a482015260c40160206040518083038186803b1515610d1457600080fd5b6102c65a03f41515610d2557600080fd5b50505060405180519150505b95945050505050565b608060405190810160409081526000808352602083018190529082015260608101610d63610de8565b905290565b815481835581811511610b5f57600402816004028360005260206000209182019101610b5f9190610e0c565b5b505050565b828054828255906000526020600020908101928215610dd7579160200282015b82811115610dd75782518255602090920191600190910190610dba565b5b50610de4929150610e4a565b5090565b60206040519081016040526000815290565b60206040519081016040526000815290565b61052191905b80821115610de45760008082556001820181905560028201819055610e3a6003830182610e6b565b50600401610e12565b5090565b90565b61052191905b80821115610de45760008155600101610e50565b5090565b90565b5080546000825590600052602060002090810190610c849190610e4a565b5b505600a165627a7a7230582034f360843579ef27f590477c954356ab6563034f47fcba4c9d9e0fb768b517ac0029a165627a7a7230582024b4d104b276fdf623cdeb36efae52137b436ef4252a68201e7dcb437671c4600029",
  "deployedBytecode": "0x60606040523615620000db5763ffffffff60e060020a6000350416630577a5958114620000e357806341c0e1b51462000117578063468d427e146200012f578063588ee29b146200016157806371be2e4a14620001895780637e4f395c14620001b15780637e7d387f14620002135780638da5cb5b14620002585780638dc668d7146200028a578063b8cc6c9314620002f6578063cab42672146200037c578063ccac2d7514620003a4578063ce844b5a14620003c8578063d1ac2c201462000434578063e1ba30a9146200045b578063f2fde38b14620004e5575b5b600080fd5b005b3415620000ef57600080fd5b62000105600160a060020a036004351662000509565b60405190815260200160405180910390f35b34156200012357600080fd5b620000e162000565565b005b34156200013b57600080fd5b6200014562000575565b604051600160a060020a03909116815260200160405180910390f35b34156200016d57600080fd5b62000105620007b9565b60405190815260200160405180910390f35b34156200019557600080fd5b62000105620007bf565b60405190815260200160405180910390f35b3415620001bd57600080fd5b620000e160048035906024803591604435916084906064359081019083013580602081810201604051908101604052809392919081815260200183836020028082843750949650620007c695505050505050565b005b34156200021f57600080fd5b6200023260043560243560443562000c3e565b604051921515835260208301919091526040808301919091526060909101905180910390f35b34156200026457600080fd5b6200014562000c94565b604051600160a060020a03909116815260200160405180910390f35b34156200029657600080fd5b620002a062000ca3565b60405160208082528190810183818151815260200191508051906020019060200280838360005b83811015620002e25780820151818401525b602001620002c7565b505050509050019250505060405180910390f35b34156200030257600080fd5b6200030f60043562000d0f565b604051848152602081018490526040810183905260806060820181815290820183818151815260200191508051906020019060200280838360005b83811015620003655780820151818401525b6020016200034a565b505050509050019550505050505060405180910390f35b34156200038857600080fd5b6200010562000dfe565b60405190815260200160405180910390f35b3415620003b057600080fd5b620000e1600160a060020a036004351662000e05565b005b3415620003d457600080fd5b620002a062001174565b60405160208082528190810183818151815260200191508051906020019060200280838360005b83811015620002e25780820151818401525b602001620002c7565b505050509050019250505060405180910390f35b34156200044057600080fd5b620000e1600160a060020a036004351660243562001207565b005b34156200046757600080fd5b6200047460043562001282565b604051978852600160a060020a03909616602088015260408088019590955260608701939093527fff0000000000000000000000000000000000000000000000000000000000000091821660808701521660a085015260c084015260e0830191909152610100909101905180910390f35b3415620004f157600080fd5b620000e1600160a060020a036004351662001352565b005b6000805433600160a060020a039081169116148062000539575081600160a060020a031633600160a060020a0316145b15156200054557600080fd5b50600160a060020a0381166000908152600660205260409020545b919050565b600054600160a060020a0316ff5b565b600080600080620005863362000509565b9250620005d5837f6372656174653a616e79000000000000000000000000000000000000000000007f6576656e7473746f72650000000000000000000000000000000000000000000062000c3e565b505060005490925033600160a060020a03908116911614801590620005f8575081155b156200060357600080fd5b6200060d62001473565b604051809103906000f08015156200062457600080fd5b905073__AddressSetLib_________________________631e40161660098360006040516020015260405160e060020a63ffffffff85160281526004810192909252600160a060020a0316602482015260440160206040518083038186803b15156200068f57600080fd5b6102c65a03f41515620006a157600080fd5b50505060405180515050600160a060020a03331660009081526008602052604080822073__AddressSetLib_________________________92631e40161692859190516020015260405160e060020a63ffffffff85160281526004810192909252600160a060020a0316602482015260440160206040518083038186803b15156200072b57600080fd5b6102c65a03f415156200073d57600080fd5b505050604051805150620007ae90507f45535f435245415445440000000000000000000000000000000000000000000060fb60020a600b0260f860020a6041027f6164647265737300000000000000000000000000000000000000000000000000600160a060020a038616620013a9565b508093505b50505090565b60005b90565b6001545b90565b620007d062001484565b838360008080807f6772616e740000000000000000000000000000000000000000000000000000008614156200081c5760005433600160a060020a039081169116146200081c57600080fd5b5b60005433600160a060020a039081169116141562000a15578a8752602087018a905260408701899052606087018890526002805460018101620008618382620014b4565b916000526020600020906004020160005b508890815181556020820151600182015560408201516002820155606082015181600301908051620008a9929160200190620014e9565b505050507f02266b19b7dc2c60e47fd601ca798e7e7cc9e6ec65f1d26a77b1bb93885508af8b8b8b8b604051848152602081018490526040810183905260806060820181815290820183818151815260200191508051906020019060200280838360005b83811015620009285780820151818401525b6020016200090d565b505050509050019550505050505060405180910390a187511515600760008d8c8e60405192835260208301919091526040808301919091526060909101905190819003902081526020810191909152604001600020805460ff191691151591909117905560025462000a0d907f41435f4752414e545f5752495454454e000000000000000000000000000000009060fb60020a600b02907f5500000000000000000000000000000000000000000000000000000000000000907f696e6465780000000000000000000000000000000000000000000000000000009060001901620013a9565b505b62000c2f565b600160a060020a033316600090815260066020526040902054935062000a3d84868862000c3e565b9250925092508215620000db578a8752602087018a905260408701899052606087018890526002805460018101620008618382620014b4565b916000526020600020906004020160005b508890815181556020820151600182015560408201516002820155606082015181600301908051620008a9929160200190620014e9565b505050507f02266b19b7dc2c60e47fd601ca798e7e7cc9e6ec65f1d26a77b1bb93885508af8b8b8b8b604051848152602081018490526040810183905260806060820181815290820183818151815260200191508051906020019060200280838360005b83811015620009285780820151818401525b6020016200090d565b505050509050019550505050505060405180910390a187511515600760008d8c8e60405192835260208301919091526040808301919091526060909101905190819003902081526020810191909152604001600020805460ff191691151591909117905560025462000a0d907f41435f4752414e545f5752495454454e000000000000000000000000000000009060fb60020a600b02907f5500000000000000000000000000000000000000000000000000000000000000907f696e6465780000000000000000000000000000000000000000000000000000009060001901620013a9565b505b62000c2f565b600080fd5b5b5b5050505050505050505050565b600080600060076000878787604051928352602083019190915260408083019190915260609091019051908190039020815260208101919091526040016000205460ff1692508591508390505b93509350939050565b600054600160a060020a031681565b62000cad6200153c565b6009805460208082020160405190810160405280929190818152602001828054801562000d0457602002820191906000526020600020905b8154600160a060020a0316815260019091019060200180831162000ce5575b505050505090505b90565b600080600062000d1e6200153c565b62000d2862001484565b600280548790811062000d3757fe5b906000526020600020906004020160005b5060806040519081016040908152825482526001830154602080840191909152600284015482840152600384018054939493606086019391929091828202909101905190810160405280929190818152602001828054801562000dcc57602002820191906000526020600020905b8154815260019091019060200180831162000db6575b50505050508152505090508060000151816020015182604001518360600151929750909550935091505b509193509193565b6002545b90565b60008173__AddressSetLib_________________________63dc02e70d600983856040516020015260405160e060020a63ffffffff85160281526004810192909252600160a060020a0316602482015260440160206040518083038186803b151562000e7057600080fd5b6102c65a03f4151562000e8257600080fd5b50505060405180519050151562000e9857600080fd5b33600160a060020a031630600160a060020a0316638da5cb5b6000604051602001526040518163ffffffff1660e060020a028152600401602060405180830381600087803b151562000ee957600080fd5b6102c65a03f1151562000efb57600080fd5b50505060405180519050600160a060020a031614151562000f1b57600080fd5b8291506008600083600160a060020a0316638da5cb5b6000604051602001526040518163ffffffff1660e060020a028152600401602060405180830381600087803b151562000f6957600080fd5b6102c65a03f1151562000f7b57600080fd5b50505060405180519050600160a060020a0316600160a060020a0316815260200190815260200160002073__AddressSetLib_________________________63499b67d990918560006040516020015260405160e060020a63ffffffff85160281526004810192909252600160a060020a0316602482015260440160206040518083038186803b15156200100e57600080fd5b6102c65a03f415156200102057600080fd5b50505060405180515073__AddressSetLib_________________________905063499b67d960098560006040516020015260405160e060020a63ffffffff85160281526004810192909252600160a060020a0316602482015260440160206040518083038186803b15156200109457600080fd5b6102c65a03f41515620010a657600080fd5b50505060405180515050600160a060020a0382166341c0e1b56040518163ffffffff1660e060020a028152600401600060405180830381600087803b1515620010ee57600080fd5b6102c65a03f115156200110057600080fd5b5050506200116c7f45535f44455354524f594544000000000000000000000000000000000000000060fb60020a600b0260f860020a6041027f616464726573730000000000000000000000000000000000000000000000000087600160a060020a0316600102620013a9565b505b5b505050565b6200117e6200153c565b6008600033600160a060020a0316600160a060020a0316815260200190815260200160002060000180548060200260200160405190810160405280929190818152602001828054801562000d0457602002820191906000526020600020905b8154600160a060020a0316815260019091019060200180831162000ce5575b505050505090505b90565b60005433600160a060020a03908116911614156200127c57600160a060020a03821660008181526006602052604090208290556200116e907f41435f524f4c455f41535349474e4544000000000000000000000000000000009060f860020a6041029060fb60020a600b029085620013a9565b505b5b5b5050565b60008060008060008060008073__EventStoreLib_________________________63a057fd5e60018b6000604051610100015260405160e060020a63ffffffff8516028152600481019290925260248201526044016101006040518083038186803b1515620012f057600080fd5b6102c65a03f415156200130257600080fd5b50505060405180519060200180519060200180519060200180519060200180519060200180519060200180519060200180519050975097509750975097509750975097505b919395975091939597565b60005433600160a060020a0390811691161415620013a357600160a060020a03811615620013a3576000805473ffffffffffffffffffffffffffffffffffffffff1916600160a060020a0383161790555b5b5b5b50565b600073__EventStoreLib_________________________633bb642036001888888888860006040516020015260405160e060020a63ffffffff8916028152600481019690965260248601949094527fff00000000000000000000000000000000000000000000000000000000000000928316604486015291166064840152608483015260a482015260c40160206040518083038186803b15156200144c57600080fd5b6102c65a03f415156200145e57600080fd5b50505060405180519150505b95945050505050565b60405161107080620015fe83390190565b608060405190810160409081526000808352602083018190529082015260608101620014af6200153c565b905290565b8154818355818115116200116e576004028160040283600052602060002091820191016200116e919062001572565b5b505050565b82805482825590600052602060002090810192821562001529579160200282015b828111156200152957825182556020909201916001909101906200150a565b5b5062001538929150620015b5565b5090565b60206040519081016040526000815290565b60206040519081016040526000815290565b60206040519081016040526000815290565b620007bc91905b80821115620015385760008082556001820181905560028201819055620015a46003830182620015d9565b5060040162001579565b5090565b90565b620007bc91905b80821115620015385760008155600101620015bc565b5090565b90565b5080546000825590600052602060002090810190620013a39190620015b5565b5b50560060606040525b5b5b60008054600160a060020a03191633600160a060020a03161790555b73__Bytes32SetLib_________________________6363d4d33560037f41435f524f4c455f41535349474e4544000000000000000000000000000000006000604051602001526040517c010000000000000000000000000000000000000000000000000000000063ffffffff85160281526004810192909252602482015260440160206040518083038186803b15156100bb57600080fd5b6102c65a03f415156100cc57600080fd5b50505060405180515073__Bytes32SetLib_________________________90506363d4d33560037f41435f4752414e545f5752495454454e000000000000000000000000000000006000604051602001526040517c010000000000000000000000000000000000000000000000000000000063ffffffff85160281526004810192909252602482015260440160206040518083038186803b151561016f57600080fd5b6102c65a03f4151561018057600080fd5b505050604051805150505b60008054600160a060020a03191632600160a060020a03161790555b5b610eb9806101b76000396000f3006060604052361561009e5763ffffffff60e060020a6000350416630577a59581146100a657806335628b38146100d757806341c0e1b51461011857806371be2e4a1461012d5780637e4f395c146101525780637e7d387f146101b15780638da5cb5b146101f3578063b8cc6c9314610222578063cab42672146102a3578063d1ac2c20146102c8578063e1ba30a9146102ec578063f2fde38b1461035b575b5b600080fd5b005b34156100b157600080fd5b6100c5600160a060020a036004351661037c565b60405190815260200160405180910390f35b34156100e257600080fd5b6100c5600435600160f860020a0319602435811690604435166064356084356103d6565b60405190815260200160405180910390f35b341561012357600080fd5b6100a461050d565b005b341561013857600080fd5b6100c561051d565b60405190815260200160405180910390f35b341561015d57600080fd5b6100a46004803590602480359160443591608490606435908101908301358060208181020160405190810160405280939291908181526020018383602002808284375094965061052495505050505050565b005b34156101bc57600080fd5b6101cd600435602435604435610982565b604051921515835260208301919091526040808301919091526060909101905180910390f35b34156101fe57600080fd5b6102066109d8565b604051600160a060020a03909116815260200160405180910390f35b341561022d57600080fd5b6102386004356109e7565b604051848152602081018490526040810183905260806060820181815290820183818151815260200191508051906020019060200280838360005b8381101561028c5780820151818401525b602001610273565b505050509050019550505050505060405180910390f35b34156102ae57600080fd5b6100c5610acf565b60405190815260200160405180910390f35b34156102d357600080fd5b6100a4600160a060020a0360043516602435610ad6565b005b34156102f757600080fd5b610302600435610b67565b604051978852600160a060020a0390961660208801526040808801959095526060870193909352600160f860020a031991821660808701521660a085015260c084015260e0830191909152610100909101905180910390f35b341561036657600080fd5b6100a4600160a060020a0360043516610c35565b005b6000805433600160a060020a03908116911614806103ab575081600160a060020a031633600160a060020a0316145b15156103b657600080fd5b50600160a060020a0381166000908152600660205260409020545b919050565b60008060006103e43361037c565b9150610431827f6372656174653a616e79000000000000000000000000000000000000000000007f6576656e74000000000000000000000000000000000000000000000000000000610982565b505060005490915033600160a060020a03908116911614801590610453575080155b1561045d57600080fd5b73__EventStoreLib_________________________633bb6420360018a8a8a8a8a60006040516020015260405160e060020a63ffffffff891602815260048101969096526024860194909452600160f860020a0319928316604486015291166064840152608483015260a482015260c40160206040518083038186803b15156104e557600080fd5b6102c65a03f415156104f657600080fd5b50505060405180519350505b505095945050505050565b600054600160a060020a0316ff5b565b6001545b90565b61052c610d3a565b838360008080807f6772616e740000000000000000000000000000000000000000000000000000008614156105765760005433600160a060020a0390811691161461057657600080fd5b5b60005433600160a060020a0390811691161415610765578a8752602087018a9052604087018990526060870188905260028054600181016105b88382610d68565b916000526020600020906004020160005b5088908151815560208201516001820155604082015160028201556060820151816003019080516105fe929160200190610d9a565b505050507f02266b19b7dc2c60e47fd601ca798e7e7cc9e6ec65f1d26a77b1bb93885508af8b8b8b8b604051848152602081018490526040810183905260806060820181815290820183818151815260200191508051906020019060200280838360005b8381101561067b5780820151818401525b602001610662565b505050509050019550505050505060405180910390a187511515600760008d8c8e60405192835260208301919091526040808301919091526060909101905190819003902081526020810191909152604001600020805460ff191691151591909117905560025461075e907f41435f4752414e545f5752495454454e000000000000000000000000000000009060fb60020a600b02907f5500000000000000000000000000000000000000000000000000000000000000907f696e6465780000000000000000000000000000000000000000000000000000009060001901610c8a565b505b610973565b600160a060020a033316600090815260066020526040902054935061078b848688610982565b925092509250821561009e578a8752602087018a9052604087018990526060870188905260028054600181016105b88382610d68565b916000526020600020906004020160005b5088908151815560208201516001820155604082015160028201556060820151816003019080516105fe929160200190610d9a565b505050507f02266b19b7dc2c60e47fd601ca798e7e7cc9e6ec65f1d26a77b1bb93885508af8b8b8b8b604051848152602081018490526040810183905260806060820181815290820183818151815260200191508051906020019060200280838360005b8381101561067b5780820151818401525b602001610662565b505050509050019550505050505060405180910390a187511515600760008d8c8e60405192835260208301919091526040808301919091526060909101905190819003902081526020810191909152604001600020805460ff191691151591909117905560025461075e907f41435f4752414e545f5752495454454e000000000000000000000000000000009060fb60020a600b02907f5500000000000000000000000000000000000000000000000000000000000000907f696e6465780000000000000000000000000000000000000000000000000000009060001901610c8a565b505b610973565b600080fd5b5b5b5050505050505050505050565b600080600060076000878787604051928352602083019190915260408083019190915260609091019051908190039020815260208101919091526040016000205460ff1692508591508390505b93509350939050565b600054600160a060020a031681565b60008060006109f4610de8565b6109fc610d3a565b6002805487908110610a0a57fe5b906000526020600020906004020160005b50608060405190810160409081528254825260018301546020808401919091526002840154828401526003840180549394936060860193919290918282029091019051908101604052809291908181526020018280548015610a9d57602002820191906000526020600020905b81548152600190910190602001808311610a88575b50505050508152505090508060000151816020015182604001518360600151929750909550935091505b509193509193565b6002545b90565b60005433600160a060020a0390811691161415610b6157600160a060020a0382166000818152600660205260409020829055610b5f907f41435f524f4c455f41535349474e454400000000000000000000000000000000907f41000000000000000000000000000000000000000000000000000000000000009060fb60020a600b029085610c8a565b505b5b5b5050565b60008060008060008060008073__EventStoreLib_________________________63a057fd5e60018b6000604051610100015260405160e060020a63ffffffff8516028152600481019290925260248201526044016101006040518083038186803b1515610bd457600080fd5b6102c65a03f41515610be557600080fd5b50505060405180519060200180519060200180519060200180519060200180519060200180519060200180519060200180519050975097509750975097509750975097505b919395975091939597565b60005433600160a060020a0390811691161415610c8457600160a060020a03811615610c84576000805473ffffffffffffffffffffffffffffffffffffffff1916600160a060020a0383161790555b5b5b5b50565b600073__EventStoreLib_________________________633bb642036001888888888860006040516020015260405160e060020a63ffffffff891602815260048101969096526024860194909452600160f860020a0319928316604486015291166064840152608483015260a482015260c40160206040518083038186803b1515610d1457600080fd5b6102c65a03f41515610d2557600080fd5b50505060405180519150505b95945050505050565b608060405190810160409081526000808352602083018190529082015260608101610d63610de8565b905290565b815481835581811511610b5f57600402816004028360005260206000209182019101610b5f9190610e0c565b5b505050565b828054828255906000526020600020908101928215610dd7579160200282015b82811115610dd75782518255602090920191600190910190610dba565b5b50610de4929150610e4a565b5090565b60206040519081016040526000815290565b60206040519081016040526000815290565b61052191905b80821115610de45760008082556001820181905560028201819055610e3a6003830182610e6b565b50600401610e12565b5090565b90565b61052191905b80821115610de45760008155600101610e50565b5090565b90565b5080546000825590600052602060002090810190610c849190610e4a565b5b505600a165627a7a7230582034f360843579ef27f590477c954356ab6563034f47fcba4c9d9e0fb768b517ac0029a165627a7a7230582024b4d104b276fdf623cdeb36efae52137b436ef4252a68201e7dcb437671c4600029",
  "source": "pragma solidity ^0.4.11;\nimport \"./RBACEventStore.sol\";\nimport '../../../Security/RBAC.sol';\nimport \"../../../SetLib/AddressSet/AddressSetLib.sol\";\n\ncontract RBACEventStoreFactory is RBAC {\n  using AddressSetLib for AddressSetLib.AddressSet;\n  mapping (address => AddressSetLib.AddressSet) creatorEventStoreMapping;\n  AddressSetLib.AddressSet storeAddresses;\n\n  // Fallback Function\n  function () payable { throw; }\n\n  // Constructor\n  function RBACEventStoreFactory()\n  payable\n  {\n\n  }\n\n  function eventCount() \n  public\n  returns (uint)\n  {\n    return store.events.length;\n  }\n\n  function debug() \n  public\n    returns (uint)\n  {\n    return 0;\n  }\n  \n\n  // Modifiers\n  modifier checkExistence(address _EventStoreAddress)\n  {\n    require(storeAddresses.contains(_EventStoreAddress));\n    _;\n  }\n\n  // Helper Functions\n  function getEventStoresByCreator()\n    public constant\n    returns (address[])\n  {\n    return creatorEventStoreMapping[msg.sender].values;\n  }\n\n  function getEventStores()\n    public constant\n    returns (address[])\n  {\n    return storeAddresses.values;\n  }\n\n  // Interface\n\tfunction createEventStore()\n    public\n    returns (address)\n  {\n    bytes32 txOriginRole = getAddressRole(msg.sender);\n\n    var (granted,,) = canRoleActionResource(txOriginRole, bytes32(\"create:any\"), bytes32(\"eventstore\"));\n\n    if (msg.sender != owner && !granted){\n      throw;\n    }\n    // Interact With Other Contracts\n    RBACEventStore _newEventStore = new RBACEventStore();\n\n    // Update State Dependent On Other Contracts\n    storeAddresses.add(address(_newEventStore));\n    creatorEventStoreMapping[msg.sender].add(address(_newEventStore));\n\n    writeInternalEvent('ES_CREATED', 'X', 'A', 'address', bytes32(address(_newEventStore)));\n\n    return address(_newEventStore);\n    \n\t}\n\n\n  function killEventStore(address _address)\n    public\n    checkExistence(_address)\n  {\n    // Validate Local State - Only the Factory owner can destroy stores with this method\n    require(this.owner() == msg.sender);\n\n    RBACEventStore _eventStore = RBACEventStore(_address);\n\n    // Update Local State\n    creatorEventStoreMapping[_eventStore.owner()].remove(_address);\n    storeAddresses.remove(_address);\n\n    _eventStore.kill();\n\n    writeInternalEvent('ES_DESTROYED', 'X', 'A', 'address', bytes32(_address));\n  }\n}\n",
  "sourcePath": "/Users/orie/TransmuteIndustries/_CORE/transmute-framework/contracts/TransmuteFramework/EventStore/Bases/RBACEventStore/RBACEventStoreFactory.sol",
  "schemaVersion": "1.0.0",
  "updatedAt": "2017-10-04T02:03:51.528Z"
}