{
  "contractName": "StringUtils",
  "abi": [
    {
      "constant": true,
      "inputs": [
        {
          "name": "v",
          "type": "bytes32"
        }
      ],
      "name": "bytesToUInt",
      "outputs": [
        {
          "name": "ret",
          "type": "uint256"
        }
      ],
      "payable": false,
      "type": "function"
    },
    {
      "constant": true,
      "inputs": [
        {
          "name": "v",
          "type": "uint256"
        }
      ],
      "name": "uintToBytes",
      "outputs": [
        {
          "name": "ret",
          "type": "bytes32"
        }
      ],
      "payable": false,
      "type": "function"
    }
  ],
  "bytecode": "0x6060604052341561000f57600080fd5b5b6101af8061001f6000396000f300606060405263ffffffff7c010000000000000000000000000000000000000000000000000000000060003504166381a33a6f811461004857806394e8767d14610065575b600080fd5b610053600435610082565b60405190815260200160405180910390f35b610053600435610103565b60405190815260200160405180910390f35b6000808083151561009257600080fd5b5060005b60208110156100fb576008601f8290030260020a848115156100b457fe5b0460ff16915081600014156100c8576100fb565b603082101580156100da575060398211155b15156100e557600080fd5b600a929092028101602f1901915b600101610096565b5b5050919050565b600081151561013357507f300000000000000000000000000000000000000000000000000000000000000061017c565b5b600082111561017c57610100815b049050600a825b066030017f01000000000000000000000000000000000000000000000000000000000000000217600a825b049150610133565b5b5b9190505600a165627a7a723058201f8099d6e97a4b1d162ae89da7a0d41920662218a012a4bfa87c9a35f06109d00029",
  "source": "pragma solidity ^0.4.11;\n// String Utils v0.1\n\n/// @title String Utils - String utility functions\n/// @author Piper Merriam - <pipermerriam@gmail.com>\nlibrary StringUtils {\n  /// @dev Converts an unsigned integer to its string representation.\n  /// @param v The number to be converted.\n  function uintToBytes(uint v) constant\n    returns (bytes32 ret) {\n    if (v == 0) {\n      ret = '0';\n    }\n    else {\n      while (v > 0) {\n        ret = bytes32(uint(ret) / (2 ** 8));\n        ret |= bytes32(((v % 10) + 48) * 2 ** (8 * 31));\n        v /= 10;\n      }\n    }\n    return ret;\n  }\n\n  /// @dev Converts a numeric string to its unsigned integer representation.\n  /// @param v The string to be converted.\n  function bytesToUInt(bytes32 v) constant\n    returns (uint ret) {\n    require(v != 0x0);\n\n    uint digit;\n\n    for (uint i = 0; i < 32; i++) {\n      digit = uint((uint(v) / (2 ** (8 * (31 - i)))) & 0xff);\n      if (digit == 0) {\n        break;\n      }\n      require(digit >= 48 && digit <= 57);\n      ret *= 10;\n      ret += (digit - 48);\n    }\n    return ret;\n  }\n}\n",
  "sourcePath": "/Users/orie/TransmuteIndustries/_CORE/transmute-framework/contracts/TransmuteFramework/Utils/StringUtils.sol",
  "schemaVersion": "1.0.0",
  "updatedAt": "2017-10-04T01:36:49.860Z"
}