{
  "contractName": "UnsafeEventStore",
  "abi": [
    {
      "constant": true,
      "inputs": [],
      "name": "creator",
      "outputs": [
        {
          "name": "",
          "type": "address"
        }
      ],
      "payable": false,
      "type": "function"
    },
    {
      "constant": false,
      "inputs": [
        {
          "name": "_eventType",
          "type": "bytes32"
        },
        {
          "name": "_keyType",
          "type": "bytes1"
        },
        {
          "name": "_valueType",
          "type": "bytes1"
        },
        {
          "name": "_key",
          "type": "bytes32"
        },
        {
          "name": "_value",
          "type": "bytes32"
        }
      ],
      "name": "writeEvent",
      "outputs": [
        {
          "name": "",
          "type": "uint256"
        }
      ],
      "payable": false,
      "type": "function"
    },
    {
      "constant": false,
      "inputs": [],
      "name": "kill",
      "outputs": [],
      "payable": false,
      "type": "function"
    },
    {
      "constant": false,
      "inputs": [],
      "name": "eventCount",
      "outputs": [
        {
          "name": "",
          "type": "uint256"
        }
      ],
      "payable": false,
      "type": "function"
    },
    {
      "constant": true,
      "inputs": [],
      "name": "owner",
      "outputs": [
        {
          "name": "",
          "type": "address"
        }
      ],
      "payable": false,
      "type": "function"
    },
    {
      "constant": false,
      "inputs": [
        {
          "name": "_eventId",
          "type": "uint256"
        }
      ],
      "name": "readEvent",
      "outputs": [
        {
          "name": "",
          "type": "uint256"
        },
        {
          "name": "",
          "type": "address"
        },
        {
          "name": "",
          "type": "uint256"
        },
        {
          "name": "",
          "type": "bytes32"
        },
        {
          "name": "",
          "type": "bytes1"
        },
        {
          "name": "",
          "type": "bytes1"
        },
        {
          "name": "",
          "type": "bytes32"
        },
        {
          "name": "",
          "type": "bytes32"
        }
      ],
      "payable": false,
      "type": "function"
    },
    {
      "constant": false,
      "inputs": [
        {
          "name": "newOwner",
          "type": "address"
        }
      ],
      "name": "transferOwnership",
      "outputs": [],
      "payable": false,
      "type": "function"
    },
    {
      "inputs": [],
      "payable": true,
      "type": "constructor"
    },
    {
      "payable": true,
      "type": "fallback"
    },
    {
      "anonymous": false,
      "inputs": [
        {
          "indexed": false,
          "name": "Id",
          "type": "uint256"
        },
        {
          "indexed": false,
          "name": "TxOrigin",
          "type": "address"
        },
        {
          "indexed": false,
          "name": "Created",
          "type": "uint256"
        },
        {
          "indexed": false,
          "name": "EventType",
          "type": "bytes32"
        },
        {
          "indexed": false,
          "name": "KeyType",
          "type": "bytes1"
        },
        {
          "indexed": false,
          "name": "ValueType",
          "type": "bytes1"
        },
        {
          "indexed": false,
          "name": "Key",
          "type": "bytes32"
        },
        {
          "indexed": false,
          "name": "Value",
          "type": "bytes32"
        }
      ],
      "name": "EsEvent",
      "type": "event"
    }
  ],
  "bytecode": "0x60606040525b5b60008054600160a060020a03191633600160a060020a03161790555b60028054600160a060020a03191632600160a060020a03161790555b5b6104548061004e6000396000f300606060405236156100675763ffffffff60e060020a60003504166302d05d3f811461006f57806335628b381461009e57806341c0e1b5146100f757806371be2e4a1461010c5780638da5cb5b14610131578063e1ba30a914610160578063f2fde38b146101e7575b5b600080fd5b005b341561007a57600080fd5b610082610208565b604051600160a060020a03909116815260200160405180910390f35b34156100a957600080fd5b6100e56004357fff0000000000000000000000000000000000000000000000000000000000000060243581169060443516606435608435610217565b60405190815260200160405180910390f35b341561010257600080fd5b61006d6102df565b005b341561011757600080fd5b6100e56102ef565b60405190815260200160405180910390f35b341561013c57600080fd5b6100826102f6565b604051600160a060020a03909116815260200160405180910390f35b341561016b57600080fd5b610176600435610305565b604051978852600160a060020a03909616602088015260408088019590955260608701939093527fff0000000000000000000000000000000000000000000000000000000000000091821660808701521660a085015260c084015260e0830191909152610100909101905180910390f35b34156101f257600080fd5b61006d600160a060020a03600435166103d3565b005b600254600160a060020a031681565b600073__EventStoreLib_________________________633bb642036001888888888860006040516020015260405160e060020a63ffffffff8916028152600481019690965260248601949094527fff00000000000000000000000000000000000000000000000000000000000000928316604486015291166064840152608483015260a482015260c40160206040518083038186803b15156102b957600080fd5b6102c65a03f415156102ca57600080fd5b50505060405180519150505b95945050505050565b600054600160a060020a0316ff5b565b6001545b90565b600054600160a060020a031681565b60008060008060008060008073__EventStoreLib_________________________63a057fd5e60018b6000604051610100015260405160e060020a63ffffffff8516028152600481019290925260248201526044016101006040518083038186803b151561037257600080fd5b6102c65a03f4151561038357600080fd5b50505060405180519060200180519060200180519060200180519060200180519060200180519060200180519060200180519050975097509750975097509750975097505b919395975091939597565b60005433600160a060020a039081169116141561042257600160a060020a03811615610422576000805473ffffffffffffffffffffffffffffffffffffffff1916600160a060020a0383161790555b5b5b5b505600a165627a7a72305820aac0e9601f39f3e767d7cfb6da84d926fda7cd8741b567c075204776f0fe2dd30029",
  "source": "pragma solidity ^0.4.11;\n\n\nimport \"../../EventStoreLib.sol\";\nimport '../../../zeppelin/lifecycle/Killable.sol';\n\ncontract UnsafeEventStore is Killable {\n  using EventStoreLib for EventStoreLib.EsEventStorage;\n\n  EventStoreLib.EsEventStorage store;\n  address public creator;\n\n  // FALLBACK\n  function () payable { throw; }\n  \n  // CONSTRUCTOR  \n  function UnsafeEventStore() payable {\n    creator = tx.origin;\n  }\n\n  function eventCount() \n  returns (uint)\n  {\n    return store.events.length;\n  }\n\n  function writeEvent(\n    bytes32 _eventType, \n    bytes1 _keyType,\n    bytes1 _valueType,\n    bytes32 _key,\n    bytes32 _value\n  ) \n    public \n    returns (uint)\n  {\n    // Check access control here before writing events...\n    return EventStoreLib.writeEvent(\n      store, \n      _eventType, \n      _keyType,\n      _valueType,\n      _key,\n      _value\n    );\n  }\n\n  // READ EVENT\n  function readEvent(uint _eventId) \n    public \n    returns (\n      uint, \n      address, \n      uint, \n      bytes32, \n      bytes1,\n      bytes1,\n      bytes32,\n      bytes32\n    )\n  {\n    return EventStoreLib.readEvent(store, _eventId);\n  }\n\n  event EsEvent(\n    uint Id,\n    address TxOrigin,\n    uint Created,\n\n    bytes32 EventType,\n\n    bytes1 KeyType,\n    bytes1 ValueType,\n\n    bytes32 Key,\n    bytes32 Value\n  );\n}",
  "sourcePath": "/Users/orie/TransmuteIndustries/_CORE/transmute-framework/contracts/TransmuteFramework/EventStore/Bases/UnsafeEventStore/UnsafeEventStore.sol",
  "schemaVersion": "1.0.0",
  "updatedAt": "2017-10-04T01:36:49.895Z"
}